{
  "contractName": "AttestedDataRegistry",
  "abi": [
    {
      "constant": false,
      "inputs": [
        {
          "name": "uportId",
          "type": "string"
        },
        {
          "name": "validator",
          "type": "string"
        },
        {
          "name": "dataType",
          "type": "string"
        },
        {
          "name": "dataHash",
          "type": "string"
        },
        {
          "name": "attestedDate",
          "type": "string"
        },
        {
          "name": "expiredDate",
          "type": "string"
        }
      ],
      "name": "addAttestedData",
      "outputs": [],
      "payable": false,
      "stateMutability": "nonpayable",
      "type": "function"
    },
    {
      "constant": true,
      "inputs": [
        {
          "name": "uportId",
          "type": "string"
        },
        {
          "name": "validator",
          "type": "string"
        },
        {
          "name": "dataType",
          "type": "string"
        }
      ],
      "name": "getAttestedData",
      "outputs": [
        {
          "name": "",
          "type": "string"
        },
        {
          "name": "",
          "type": "string"
        },
        {
          "name": "",
          "type": "string"
        }
      ],
      "payable": false,
      "stateMutability": "view",
      "type": "function"
    }
  ],
  "bytecode": "0x6060604052341561000f57600080fd5b610a198061001e6000396000f30060606040526004361061004c576000357c0100000000000000000000000000000000000000000000000000000000900463ffffffff1680630a16f84614610051578063f7ff1f90146101fd575b600080fd5b341561005c57600080fd5b6101fb600480803590602001908201803590602001908080601f0160208091040260200160405190810160405280939291908181526020018383808284378201915050505050509190803590602001908201803590602001908080601f0160208091040260200160405190810160405280939291908181526020018383808284378201915050505050509190803590602001908201803590602001908080601f0160208091040260200160405190810160405280939291908181526020018383808284378201915050505050509190803590602001908201803590602001908080601f0160208091040260200160405190810160405280939291908181526020018383808284378201915050505050509190803590602001908201803590602001908080601f0160208091040260200160405190810160405280939291908181526020018383808284378201915050505050509190803590602001908201803590602001908080601f01602080910402602001604051908101604052809392919081815260200183838082843782019150505050505091905050610431565b005b341561020857600080fd5b6102de600480803590602001908201803590602001908080601f0160208091040260200160405190810160405280939291908181526020018383808284378201915050505050509190803590602001908201803590602001908080601f0160208091040260200160405190810160405280939291908181526020018383808284378201915050505050509190803590602001908201803590602001908080601f016020809104026020016040519081016040528093929190818152602001838380828437820191505050505050919050506105ec565b60405180806020018060200180602001848103845287818151815260200191508051906020019080838360005b8381101561032657808201518184015260208101905061030b565b50505050905090810190601f1680156103535780820380516001836020036101000a031916815260200191505b50848103835286818151815260200191508051906020019080838360005b8381101561038c578082015181840152602081019050610371565b50505050905090810190601f1680156103b95780820380516001836020036101000a031916815260200191505b50848103825285818151815260200191508051906020019080838360005b838110156103f25780820151818401526020810190506103d7565b50505050905090810190601f16801561041f5780820380516001836020036101000a031916815260200191505b50965050505050505060405180910390f35b606060405190810160405280848152602001838152602001828152506000876040518082805190602001908083835b6020831015156104855780518252602082019150602081019050602083039250610460565b6001836020036101000a0380198251168184511680821785525050505050509050019150509081526020016040518091039020856040518082805190602001908083835b6020831015156104ee57805182526020820191506020810190506020830392506104c9565b6001836020036101000a0380198251168184511680821785525050505050509050019150509081526020016040518091039020866040518082805190602001908083835b6020831015156105575780518252602082019150602081019050602083039250610532565b6001836020036101000a038019825116818451168082178552505050505050905001915050908152602001604051809103902060008201518160000190805190602001906105a6929190610934565b5060208201518160010190805190602001906105c3929190610934565b5060408201518160020190805190602001906105e0929190610934565b50905050505050505050565b6105f46109b4565b6105fc6109b4565b6106046109b4565b600080876040518082805190602001908083835b60208310151561063d5780518252602082019150602081019050602083039250610618565b6001836020036101000a0380198251168184511680821785525050505050509050019150509081526020016040518091039020856040518082805190602001908083835b6020831015156106a65780518252602082019150602081019050602083039250610681565b6001836020036101000a0380198251168184511680821785525050505050509050019150509081526020016040518091039020866040518082805190602001908083835b60208310151561070f57805182526020820191506020810190506020830392506106ea565b6001836020036101000a03801982511681845116808217855250505050505090500191505090815260200160405180910390209050806001018160020182600001828054600181600116156101000203166002900480601f0160208091040260200160405190810160405280929190818152602001828054600181600116156101000203166002900480156107e55780601f106107ba576101008083540402835291602001916107e5565b820191906000526020600020905b8154815290600101906020018083116107c857829003601f168201915b50505050509250818054600181600116156101000203166002900480601f0160208091040260200160405190810160405280929190818152602001828054600181600116156101000203166002900480156108815780601f1061085657610100808354040283529160200191610881565b820191906000526020600020905b81548152906001019060200180831161086457829003601f168201915b50505050509150808054600181600116156101000203166002900480601f01602080910402602001604051908101604052809291908181526020018280546001816001161561010002031660029004801561091d5780601f106108f25761010080835404028352916020019161091d565b820191906000526020600020905b81548152906001019060200180831161090057829003601f168201915b505050505090509350935093505093509350939050565b828054600181600116156101000203166002900490600052602060002090601f016020900481019282601f1061097557805160ff19168380011785556109a3565b828001600101855582156109a3579182015b828111156109a2578251825591602001919060010190610987565b5b5090506109b091906109c8565b5090565b602060405190810160405280600081525090565b6109ea91905b808211156109e65760008160009055506001016109ce565b5090565b905600a165627a7a72305820bb862ff2fb0760be0d62c03d6627bdf4c90f0842e88c10672330a1f10f3eced10029",
  "source": "pragma solidity ^0.4.15;\n\ncontract AttestedDataRegistry {\n\n\tstruct DataDetails {\n\t\tstring dataHash;\n\t\tstring attestedDate;//attestedData.exp\n\t\tstring expiredDate;//attestedData.iat, string format with timezone\n\t}\n\t//clientUportId => mapping(dataType => mapping (validatorUportId => DataDetails))) attestedData;\n\tmapping (string => mapping(string => mapping (string => DataDetails))) attestedData;\n\n\tfunction addAttestedData(string uportId,string validator, string dataType, string dataHash, string attestedDate, string expiredDate) {\n\t\tattestedData[uportId][dataType][validator] =  DataDetails(dataHash, attestedDate, expiredDate);\n\t}\n\n\tfunction getAttestedData(string uportId, string validator, string dataType) constant returns(string, string, string) {\n       DataDetails data =  attestedData[uportId][dataType][validator];\n       return (data.attestedDate, data.expiredDate, data.dataHash);\n  }\n}\n",
  "sourcePath": "/Users/innovation/uport-topcoder/contracts/AttestedDataRegistry.sol",
  "compiler": {
    "name": "solc",
    "version": "0.4.19+commit.c4cbbb05.Emscripten.clang"
  },
  "schemaVersion": "1.0.1",
  "updatedAt": "2018-04-24T04:32:06.548Z"
}